:020000040000FA
:2000000000040020D90A00006D070000B90A000077070000810700008B070000000000000A
:20002000000000000000000000000000FD0A000095070000000000009F070000A9070000C7
:20004000B3070000BD070000C7070000D1070000DB070000E5070000EF070000F9070000B8
:20006000030800000D08000017080000210800002B080000350800003F0800004908000010
:20008000530800005D08000067080000710800007B080000850800008F0800009908000070
:2000A000A3080000AD080000B7080000C1080000CB080000D5080000DF080000E9080000D0
:2000C000F3080000FD08000007090000110900001B090000250900002F090000390900002A
:2000E000430900004D09000057090000610900006B090000750900007F0900008909000088
:20010000930900001FB500F003F88DE80F001FBD00F0D8BC40F6FC7108684FF01022401CC0
:2001200008D00868401C09D00868401C04D0086800F037BA9069F5E79069F9E7704770B5C7
:200140000B46010B184400F6FF70040B4FF080500022090303692403406943431D1B1046E5
:2001600000F048FA29462046BDE8704000F042BAF0B54FF6FF734FF4B4751A466E1E11E092
:20018000A94201D3344600E00C46091B30F8027B641E3B441A44F9D19CB204EB134394B229
:2001A00004EB12420029EBD198B200EB134002EB124140EA0140F0BDF34992B00446D1E9B5
:2001C0000001CDE91001FF224021684600F020FC94E80F008DE80F00684610A902E004C8F7
:2001E00041F8042D8842FAD110216846FFF7C0FF1090AA208DF8440000F099F9FFF78AFF38
:2002000040F6FC7420684FF01025401C0FD0206810226946803000F078F92068401C08D0CB
:200220002068082210A900F070F900F061F9A869EEE7A869F5E74FF080500369406940F683
:20024000FC71434308684FF01022401C06D0086800F58050834203D2092070479069F7E712
:200260000868401C04D00868401C03D0002070479069F9E70420704770B504460068C34DCD
:20028000072876D2DFE800F033041929631E2500D4E9026564682946304600F062F92A4681
:2002A0002146304600F031F9AA002146304600F083FB002800D0032070BD00F035FC4FF4A6
:2002C000805007E0201D00F040F90028F4D100F02BFC60682860002070BD241D94E807009C
:2002E000920000F069FB0028F6D00E2070BDFFF7A2FF0028FAD1D4E901034FF0805100EB89
:20030000830208694D69684382420ED840F6F87005684FF010226D1C09D0056805EB830519
:200320000B6949694B439D4203D9092070BD5569F4E70168491C03D00068401C02D003E045
:200340005069FAE70F2070BD2046FFF735FFFFF772FF0028F7D1201D00F0F7F80028F2D1B9
:2003600060680028F0D100F0E2F8FFF7D3FE00F0BFF8072070BD10B50C46182802D00120F6
:20038000086010BD2068FFF777FF206010BD4168054609B1012700E0002740F6F8742068E0
:2003A0004FF01026401C2BD02068AA68920000F003FB38B3A86881002068401C27D0206878
:2003C000FFF7BDFED7B12068401C22D026684FF08050AC686D68016942695143A9420DD90E
:2003E000016940694143A14208D92146304600F0B8F822462946304600F087F800F078F809
:200400007069D2E700F093F8FFF784FEF6E77069D6E77669DBE740F6FC7420684FF01026A0
:20042000401C23D02068401C0CD02068401C1FD02568206805F18005401C1BD027683879C3
:20044000AA2819D040F6F8700168491C42D00168491C45D00168491C3ED001680968491C65
:200460003ED00168491C39D000683EE0B069DAE7B569DEE7B769E2E710212846FFF778FE60
:200480003968814222D12068401C05D0D4F8001001F18002C03107E0B169F9E730B108CA77
:2004A00051F8040D984201D1012000E000208A42F4D158B1286810B1042803D0FEE72846D8
:2004C000FFF765FF3149686808600EE0FFF722FE00F00EF87169BBE77169BFE7706904E05D
:2004E0004FF480500168491C01D000F0F7FAFEE7BFF34F8F26480168264A01F4E061114323
:200500000160BFF34F8F00BFFDE72DE9F04117460D460646002406E03046296800F054F8B7
:20052000641C2D1D361DBC42F6D3BDE8F08140F6FC700168491C04D0D0F800004FF48051A1
:20054000FDE54FF010208069F8E74FF080510A69496900684A43824201D8102070470020B4
:20056000704770B50C4605464FF4806608E0284600F017F8B44205D3A4F5806405F580556A
:20058000002CF4D170BD00004C0B0000000000200CED00E00400FA05144801680029FCD030
:2005A0007047134A0221116010490B68002BFCD00F4B1B1D186008680028FCD000201060D2
:2005C00008680028FCD07047094B10B501221A60064A1468002CFCD0016010680028FCD0B9
:2005E0000020186010680028FCD010BD00E4014004E5014070B50C46054600F083F840B9B5
:2006000000F096F828B900F09DF810B900F0A4F828B121462846BDE8704000F007B8214688
:200620002846BDE8704000F037B800007FB5002200920192029203920A0B000B6946012381
:2006400002440AE0440900F01F0651F8245003FA06F6354341F82450401C8242F2D80D49ED
:200660000868009A10430860081D0168019A1143016000F047F800280AD0064910310868A6
:20068000029A10430860091D0868039A104308607FBD00000006004030B50F4C002200BF72
:2006A00004EB0213D3F800582DB9D3F8045815B9D3F808581DB1521C082AF1D330BD082ABC
:2006C000FCD204EB0212C2F80008C3F804180220C3F8080830BD000000E001404FF08050A6
:2006E000D0F83001082801D000207047012070474FF08050D0F830010D2801D0002070476C
:20070000012070474FF08050D0F83001062803D0401C01D000207047012070474FF080500D
:20072000D0F83001102801D000207047012070474FF08050D0F830010E2801D00020704722
:20074000012070474FF08050D0F830010A2801D000207047012070474FF08050D0F83001FF
:200760000F2801D0002070470120704708208F4909680958084710208C490968095808477B
:2007800014208A490968095808471820874909680958084730208549096809580847382071
:2007A00082490968095808473C20804909680958084740207D4909680958084744207B4998
:2007C000096809580847482078490968095808474C207649096809580847502073490968C5
:2007E000095808475420714909680958084758206E490968095808475C206C4909680958A7
:2008000008476020694909680958084764206749096809580847682064490968095808478B
:200820006C20624909680958084770205F4909680958084774205D49096809580847782014
:200840005A490968095808477C2058490968095808478020554909680958084784205349D7
:20086000096809580847882050490968095808478C204E4909680958084790204B490968DC
:200880000958084794204949096809580847982046490968095808479C20444909680958BE
:2008A0000847A0204149096809580847A4203F49096809580847A8203C49096809580847A3
:2008C000AC203A49096809580847B0203749096809580847B4203549096809580847B820EC
:2008E0003249096809580847BC203049096809580847C0202D49096809580847C4202B4917
:20090000096809580847C8202849096809580847CC202649096809580847D02023490968F3
:2009200009580847D4202149096809580847D8201E49096809580847DC201C4909680958D5
:200940000847E0201949096809580847E4201749096809580847E8201449096809580847BA
:20096000EC201249096809580847F0200F49096809580847F4200D49096809580847F820C3
:200980000A49096809580847FC2008490968095808475FF4807005490968095808470000A3
:2009A00003480449024A034B7047000000000020580B0000580B000040EA010310B59B07D3
:2009C0000FD1042A0DD310C808C9121F9C42F8D020BA19BA884201D9012010BD4FF0FF30FC
:2009E00010BD1AB1D30703D0521C07E0002010BD10F8013B11F8014B1B1B07D110F8013B85
:200A000011F8014B1B1B01D1921EF1D1184610BD02F0FF0343EA032242EA024200F005B879
:200A20007047704770474FF000020429C0F0128010F0030C00F01B80CCF1040CBCF1020FBC
:200A400018BF00F8012BA8BF20F8022BA1EB0C0100F00DB85FEAC17C24BF00F8012B00F81C
:200A6000012B48BF00F8012B70474FF0000200B5134694469646203922BFA0E80C50A0E8BD
:200A80000C50B1F12001BFF4F7AF090728BFA0E80C5048BF0CC05DF804EB890028BF40F844
:200AA000042B08BF704748BF20F8022B11F0804F18BF00F8012B7047014B1B68DB6818474A
:200AC0000000002009480A497047FFF7FBFFFFF719FB00BD20BFFDE7064B1847064A1060B1
:200AE000016881F30888406800470000580B0000580B000017040000000000201EF0040F78
:200B00000CBFEFF30881EFF30981886902380078182803D100E00000074A1047074A126829
:200B20002C3212681047000000B5054B1B68054A9B58984700BD0000770300000000002086
:180B4000480B000004000000001000000000000000FFFFFF0090D003D6
:2010000030100020256D0100BD2F0000776C0100BD2F0000BD2F0000BD2F00000000000049
:20102000000000000000000000000000B16D0100BD2F000000000000BD2F0000BD2F0000CD
:20104000196E01001F6E0100BD2F0000BD2F0000BD2F0000BD2F0000BD2F0000BD2F0000F2
:20106000256E0100BD2F0000BD2F00002B6E0100BD2F0000316E0100376E01003D6E01008C
:20108000BD2F0000BD2F0000BD2F0000BD2F0000BD2F0000BD2F0000BD2F0000BD2F0000F0
:2010A000BD2F0000436E0100BD2F0000BD2F0000BD2F0000BD2F0000BD2F0000BD2F00000A
:2010C000BD2F0000BD2F0000BD2F0000BD2F0000BD2F0000BD2F0000BD2F0000BD2F0000B0
:2010E000BD2F0000BD2F0000BD2F0000BD2F0000BD2F0000BD2F0000BD2F0000BD2F000090
:20110000BD2F0000BD2F000000F002F815F0F9FD0AA090E8000C82448344AAF10107DA4595
:2011200001D115F0EEFDAFF2090EBAE80F0013F0010F18BFFB1A43F001031847ECA2010060
:201140000CA301000A4410F8014B14F00F0508BF10F8015B240908BF10F8014B6D1E05D052
:2011600010F8013B6D1E01F8013BF9D1641E03D0641E01F8015BFBD19142E4D37047000068
:201180000023002400250026103A28BF78C1FBD8520728BF30C148BF0B6070471FB500F062
:2011A00003F88DE80F001FBD15F0A8BD70B51B4C05460B202070A01C00F0ADF85920A080EE
:2011C00029462046BDE8704006F044BE06F04DBE70B50C461249097829B1A0F160015E2946
:2011E00008D3012013E0602804D06A2802D043F201000CE020CC0B4E94E80E0006EB8000DE
:20120000A0F58050241FD0F8806E2846B047206070BD012070470620704700000800002081
:2012200024000020FCAF01003249884201D2012070470020704770B50446A0F500002E4E77
:20124000B0F1786F02D23444A4F500042948844201D2012500E0002500F043F848B125B9E6
:20126000B44204D32548006808E0012070BD002070BD002DF9D1B442F9D321488442F6D299
:20128000F3E710B50446A0F50000B0F1786F03D219480444A4F5000400F023F84FF0804122
:2012A00030B11648006804E08C4204D2012003E013488442F8D2002080F0010010BD10B5ED
:2012C00020B1FFF7DEFF08B1012010BD002010BD10B520B1FFF7AFFF08B1012010BD0020D5
:2012E00010BD084808490068884201D1012070470020704700C001000000002028000020A4
:201300000800002038000020BEBAFECA10B5FFF74DFF002010BD4FF4897101807047FFF7AE
:2013200055BF0020704703487047FFF751BF70477047000003F9004230B504461038FE4D4C
:2013400007280CD2DFE800F0040C060C0C0C0C00FFDF05E02878112802D0FFDF00E0FFDF79
:201360002C7030BD70B519F055FB04460DF04CFD201AC5B206200BF04FFE044606200BF04C
:2013800053FE201AC1B2EC480078122809D000221144C9B2132806D000200844281AC0B26D
:2013A00070BD0122F4E70120F7E71CB5E248417B49080CD0D0F80E100091408AADF8040035
:2013C00068460AF0A6F9BDE81C4006F0CABBDA480E300AF084F9F6E77CB505460C4608467A
:2013E000FFF729FF08B110207CBD2088ADF800008DF80250A0788DF80300E0788DF8040008
:2014000068460AF0E4FD06F0ACFB7CBD10B50AF0B2FBBDE8104006F0A4BB30B50446A1F1F6
:2014200020000D460A2847D2DFE800F005070C19202532373C41FFDF3FE0207820283CD1F1
:20144000FFDF3AE02078242837D0252835D0232833D0B948007812282FD0FFDF2DE02078D4
:2014600022282AD0232828D8FFDF26E02078222823D0FFDF21E0207822281ED024281CD03D
:2014800026281AD0272818D0292816D0FFDF14E02078252811D0FFDF0FE0207825280CD080
:2014A000FFDF0AE02078252807D0FFDF05E02078282802D0FFDF00E0FFDF257030BD70B5E8
:2014C00014460D460646FFF7B6FE60B90DB1A54201D90C2070BD002409E000BF56F824003A
:2014E000FFF7A9FE08B1102070BD641CE4B2AC42F4D3002070BD10B50278540809D001228A
:2015000043F20223012C07D0022C0DD0032C13D10FE00020087005E080790324B4EB901F75
:201520000AD10A70002010BD8079B2EB901F03D1F7E780798009F4D0184610BD08B5002024
:201540008DF800007C48817D49B1C07D02280FD003280FD0FFDF00BF9DF8000008BD764845
:2015600069460D3001F07FF90028F5D0FFDFF3E7032000E001208DF80000EDE738B50C46B5
:201580000546694601F06FF900280DD19DF80010207861F34700207055F8010FC4F8010070
:2015A000A888A4F80500002038BD38B51378C0B1022816D061A46D46246800944C7905EBBF
:2015C0009414247864F34703137003280ED003F0FE0010700868C2F801008888A2F805004F
:2015E00038BD23F0FE0313700228EED1D8B240F00100EEE702210BF063BD38B50C460978E8
:20160000222901D2082038BDADF800008DF8022068460AF0AEF806F0A4FA050003D1212146
:201620002046FFF7FAFE284638BD1CB500208DF80000CDF80100ADF805003F48807D02285F
:2016400001D0012000E000208DF8070068460AF005F9002800D0FFDF1CBD70B58AB00D4605
:20166000040005D0FFF734FE20B110200AB070BD0820FBE72078C10704D1A9881F2901D2F6
:201680000920F3E780073AD4FFF76CFE38B12178C1F3C100012804D0032802D004E013204A
:2016A000E4E72548007BC8B1C8074FF001064FF0000502D08DF8196001E08DF81950FFF710
:2016C0003DFF8DF8000020786946C0F3C1008DF8010060788DF80250C20801D00720C5E7EB
:2016E00078B1C20701D08DF80260820705D59DF8022042F002028DF80220400703D5062004
:20170000B4E78DF80260002022780B18C2F38002DA7001EB800263689360401CA368C0B2E4
:2017200013610228F0D3A07B0028E8D1E07B0028E5D1207C002803E0D80100200302FF016E
:20174000DDD1607C0028DAD1A07CC006D7D104F10E0001F07CF88DF8180068460AF0DDF820
:2017600006F0FFF9002881D18DF81C608DF81D50A089ADF81E00ADF8205007A80AF045F926
:2017800006F0EFF900288BD12078C00701D0152000E01320FFF7D0FD002067E71CB50C461B
:2017A0000021009101918DF8000038B12046FFF742FD08B110201CBD2068019068460AF059
:2017C000D2F906F0CEF91CBD032801D307207047FE4B53F82030104618472DE9FF470220B4
:2017E000FB4E8DF804000027708BADF80600B84643F202094CE001A80BF0CDFB050006D099
:20180000708BA8B3A6F81A80ADF806803EE0039CA07F01072DD504F124000090A28EBDF89B
:201820000800214604F1360301F042FD050005D04D452AD0112D3CD0FFDF3AE0A07F20F004
:201840000801E07F420862F3C711A177810861F30000E07794F8210000F01F0084F8200005
:201860002078282826D129212046FFF7D6FD21E014E040070AD5BDF8080004F10E0100F044
:20188000FCFF05000DD04D4510D100257F1CFFB202200BF0C1FB401CB842ACD8052D12D0C0
:2018A00008E0A07F20F00400A07703E0112D00D0FFDF0025BDF806007083052D05D02846DF
:2018C00004B0BDE8F087A6F81A800020F8E72DE9FE4F040000D1FFDF2078DFF8F48220F0F6
:2018E0000F00801C20F0F0007030207060680178491F19292FD2DFE801F0EF2E2E2E51EEB1
:201900002E0DEEEE3EED2E2E2E6AED2EEC2EED2EEBEDED00B0F805603046FFF76BFE05464F
:20192000304609F09AFAC0B16068C07985F83E0021212846FFF771FD304603F0D7FA3046B3
:2019400004F09CFCA87F20F01000A877FFF745FF002800D0FFDFBDE8FE8F207820F0F000BB
:20196000203020700320207266806068C079607206F0F1FADCE7C5882846FFF73BFE00B9D2
:20198000FFDF60680079012800D0FFDF6068017A03B02846BDE8F04F09F005BBC088FFF712
:2019A00029FE050000D1FFDF06F0D5FA60680089288160684089688160688089A8810020F9
:2019C000A875FFF70AFF0028C5D0FFDFC3E7007928B10228BFD03C28BDD0FFDFBBE7002604
:2019E00006F0B9FA65684FF0FF09B5F806A0287A2D1D08B998F80190484606F053F8070033
:201A000000D1FFDF0022022150460BF050FB040000D1FFDF22212046FFF7FFFC287900B94F
:201A20000226A07F02AA66F30100A077288B2081688B6081A88BA08184F822908DF80860AB
:201A4000032150460BF033FB00B9FFDFB888ADF80400B8788DF8060001AA052150460BF006
:201A600026FB00B9FFDFB888ADF80000F8788DF802006A46042150460BF019FB00B9FFDFC1
:201A8000062105F1120000F003FF30B36879800700D5FFDF6979E07D61F34700E075D5F82B
:201AA0000600A0616889A083062105F10C0000F0EFFEE0B198F80D104A08617862F34701FF
:201AC0006170D8F80E10C4F80210B8F8120017E029E041E03AE021E02EE0E07D20F0FE0002
:201AE000801CE075D5F81200A061E88ADBE7607820F0FE00801C6070E868C4F80200288ACF
:201B0000E080022E01D0FFDF25E798F80000122800D0FFDF1120FFF70FFC1CE72046BDE8C2
:201B2000FE4F01F0CABD06F016FA98F8181041F0040188F818100EE798F80000132809D0AB
:201B40001528E1D15FF01600FFF7F6FBBDE8FE4F06F001BA1420F7E798F80010122903D1E6
:201B600098F8010000F069FE1120EDE72DE9F047064600784FF000080009DFF854A0914675
:201B80000C46474601287CD002287BD007280BD00A2830D0FFDF00BFA9F8007014B1A4F831
:201BA0000080678000208CE6756804F108004FF0020C2A784FF6FF71172A7CD011DC102AFA
:201BC0003CD009DC052A65D0092A03E070B10100D80100200DD10FE0142A36D0152A08D156
:201BE000C0E0192A1DD01B2A66D01C2A65D01D2A7DD04A4621464EE1EE884FF0120810275F
:201C0000F4B33046FFF7F6FC050000D1FFDFA68029892181298961816989A181A989E18155
:201C2000BAE74FF01C080A2754B3A888A0807068807920727068C0796072ADE74FF01B08DC
:201C40001427ECB103202072B9E029793C29A3D018274FF010082D1D94B16988A180298BF9
:201C60006182298B2182698BA182A98BE1826B790246A91D1846FFF798FC2879002802E0F7
:201C800005E0B4E0CEE087D184F80FC084E7A9F8007087E72C274FF01D08002CF7D006469A
:201CA000A18015F80E0F318860F30001318015F80A09400802E086E042E068E060F341016C
:201CC0003180A87AB21C800860F382013180A87AC00860F3C3013180A87A0011401C60F3C0
:201CE000041101F07F0030806878A91C00E05AE0FFF75BFC287D06F1090205F11501FFF7FA
:201D000054FC287B00F0D3FD3074687B00F0CFFD7074E87EB074687AF074287F3075A87BAA
:201D20007075288AF082DAF80400B06130882A7A20F060003080A28405F11D01B0692FE0D5
:201D40000A274FF02108002CA1D0A888A0807068807920727068C07960729AF8181021F0EC
:201D600004015CE00B274FF02208002C8FD0E888A0807068007920727068007A00F097FDB3
:201D800060727068407A00F092FDA07204E730274FF02508002CD7D0A180716828224968D8
:201DA00016F00CFDF8E60E274FF02708002CCBD0A1807068D0F80610A1604089A081706832
:201DC0008088A080E8E614274FF01B08002CBBD0A18070680079012806D001202072DAE9D2
:201DE0000110C4E90310D7E684F808C0D4E6307A012801D0FFDFCFE610274FF01F08002C57
:201E0000A2D07088A08070892081B0896081F089A081308AE0819AF8181021F001018AF880
:201E20001810B9E6307AA8B3012834D0022832D0032801D0FFDFAFE609274FF01108002C5A
:201E400094D075882846FFF7D5FB90F822A0A580707A2072042128460BF044F905212846A3
:201E60000BF040F9002128460BF03CF9012128460BF038F9032128460BF034F90221284668
:201E80000BF030F9062128460BF02CF9504600F0D4FC81E6FFE73046BDE8F04701F01ABDAC
:201EA00000B5032800D0FFDF00BD70B514460D00064600D1FFDF207820F00F01891C21F0E2
:201EC000F000103020702878012801D0FFDF70BD3046FFF78FFB060000D1FFDF0320B075AA
:201EE00006F039F82868A0606868E06028892082F848017E41F00101017670BD1CB5203809
:201F00000C46082841D2DFE800F0044022262E404038002103200DF0F0F908B111201CBD16
:201F2000D4F802000090E088ADF80400684609F0B4FF05F016FE040028D10022082311462E
:201F400003200DF05FF9032820D0FFDF1EE0206801F0D0FE05E0207800F0010009F0B2FBB7
:201F600010E0044612E02088ADF800006088ADF8020068460AF003F804E0207800F0010049
:201F80000AF0AAF805F0EDFDEBE7072420461CBD7FB505460C460846FFF773F910B1102018
:201FA00004B070BD202D05D0222D13D0272D11D00720F5E72088ADF8000001A9684609F016
:201FC0002EFC05F0CEFD0299C4F802109DF80C10A171E5E70620E3E7BE480D30704708B578
:201FE0001C220021BB4816F009FC1120FFF7A4F9B84968460E3105F041FFB6489DF80020DA
:20200000417B62F3470121F001014173002181754FF4617181820221C175FFF7C6F900B1B2
:20202000FFDF00F053FC01F01AFB08BD10B50C4640220021204616F0E1FBA07F20F00300A4
:20204000A077202020700020A07584F8230010BD70472DE9FC410746FFF7EDF810B11020D5
:20206000BDE8FC819B4E06F10D01D6F80D000090B6F81150ADF80450F47C8DF80640384624
:20208000FFF77CFA0028EBD1FFF78FF90028E7D0009946F80D1FB580B471E1E710B504465F
:2020A000FFF7EFF808B1102010BD8A4889492246407B0E314008FFF778FA002010BDFEB537
:2020C0000D4604004FF0000711D00822FFF7F7F9002811D1002608E054F826006946FFF743
:2020E0000AFA002808D1761CF6B2AE42F4D309F039FA10B143F20320FEBD764E3773FCB1CF
:2021000000271AE054F8270002A9FFF7F4F900B1FFDF9DF808008DF8000054F8270050F831
:20212000011FCDF801108088ADF80500684609F03EFA00B1FFDF7F1CFFB2AF42E2D33573EF
:202140000020FEBD2DE9F0478CB01546894604001DD00F4608222946FFF7B1F9002810D169
:20216000002612E054F826006946103000F07BFB002806D13FB157F82600FFF75CF810B111
:2021800010200CB00FE5761CF6B2AE42EAD30026A5F101081CE000BF06F1010A0AF0FF07F6
:2021A00012E000BF54F82600017C4A0854F827100B7CB2EB530F05D106221130113116F09D
:2021C000ECFA58B17F1CFFB2AF42EBD30AF0FF064645E1DB4E4624B1012003E043F2052008
:2021E000CFE700208DF828000AA809F000FA10B909F00BFA10B143F20420C2E764B30027EF
:202200000DF1170826E000BF54F827006946103000F029FB00B1FFDF54F82700102250F8EA
:20222000111FCDF801108088ADF8050054F827100DF1070016F0C2FA96B156F8271010229E
:20224000404616F0BBFA684609F096F900B1FFDF7F1CFFB2AF42D7D3FFF7E7F9002090E724
:20226000404601F03BFDEEE730B587B0044600F0B4FC30B906200AF0CFFE10B1062007B060
:2022800030BD2046FEF7D7FF18B96068FFF720F808B11020F3E760884AF2B81188420BD81C
:2022A0000C4D2878132801D30820E8E7207828B1012806D0022804D00720E0E7FFF775F860
:2022C0001AE06078022807D0032805D043F20220D5E70000D8010020E875C1B2002001909E
:2022E000ADF8080002292ED0032929D0FFDF01A809F00FFA05F035FC0028C0D1606801F0C2
:20230000E0FC207858B101208DF804000DF1050001F0E4FC01A809F0C8FE00B1FFDF207833
:20232000A875FFF782F9608878B1A88280B2ADF80000684609F052F900B1FFDF00209EE7D7
:202340008DF80900D3E74020FAE74FF46170ECE710B50446FEF795FF20B9606838B1FEF7F6
:20236000AEFF08B1102010BD606801F0B7FCF948818A6180C17D6170807D2070002010BDD8
:202380002DE9F04107460E4603250846FEF7A0FFF0BB3846FFF72EF9040005D0207822284A
:2023A00005D20820BDE8F08143F20200FAE7A17F01F00300022802D0FFDF2846F2E7A07D9E
:2023C000032803D1E348007EC00701D006B30DE01EB1480720D4002100E00121384608F06C
:2023E000C5FD0500E9D1A075002EE6D03146384600F043FA05461128DFD1A07F4107DCD4F6
:20240000316844F80E1F7168616040F0040000E004E020740025D0E71125CEE71020C1E7F5
:2024200070B50C460546FFF7E5F8010005D022462846BDE87040FFF7E0B843F2020070BD14
:2024400010B5401EC0B209F000F9BDE8104005F088BB70B504460D460846FEF7ECFE18B908
:202460002868FEF70EFF08B1102070BDB94E3078112804D0132800D33CB1082070BD294639
:202480002046FFF7EAF870B170BD0024132801D0142807D1A8881F2801D2092070BD132099
:2024A000FEF74AFF2046D5E90012C6E9011270BD1CB5A8480078132801D208201CBD002051
:2024C0008DF80000684609F0A0FA05F04AFB0028F4D11120FEF730FF00201CBD2DE9F04F6C
:2024E000DFF870B2824695B09BF80000994615460C46132803D3FFF7DBFF00281FD1204658
:20250000FEF799FE78BB2846FEF795FE58BB20784FF00107C0074FF0000102D08DF84870FE
:2025200001E08DF8481020788846C0F3C1008DF8000060788DF80910C10803D0072015B080
:20254000BDE8F08F80B1C10701D08DF80970810705D59DF8091041F002018DF80910400766
:2025600004D50620EBE718E08DF8097000206E4606EB80016268CA60401CA268C0B28A6197
:202580000328F5D32078C0F3C100012821D003281FD05046FEF74FFE08B11020CFE79AF8FF
:2025A0000000400808D0012809D0022807D0032805D043F20220C2E78DF8028001E08DF88B
:2025C0000270504650F8011FCDF803108088ADF80700FEF7B3FF8DF801000020424606EB39
:2025E00040012B888B846B884B85AB880B86EB88CB86401C8A87C0B2A1F842200328EED3C7
:20260000A089ADF84A0004F10E0000F020F98DF84C009BF800005D46112801D008208EE7E8
:2026200006200AF001FD68B32078C0F3C100012801D0032803D1287B00283FF47FAFFEF73B
:2026400091FE022801D2132079E72078800788D46E784C460227484605F024FA80B14078B5
:2026600080B13946204605F01AFD85F80190684609F086FA05F075FA070005D06E705EE7A0
:2026800005205CE712205AE7687805F00BFA040000D1FFDF607800B9FFDF6078401E60705D
:2026A0001220FEF749FE384649E770B5294D2878122801D0082070BD09F064FB05F051FACB
:2026C000040005D1687800F0B8F81120FEF734FE204670BD70B5064615460C460846FEF754
:2026E000D0FD18B92846FEF7CCFD08B1102070BD2A462146304609F099FC05F032FA0028D6
:20270000F5D121787F29F2D1052070BD7CB505460C460846FEF78FFD08B110207CBD284670
:20272000FEF768FF20B10078222804D208207CBD43F202007CBD0748007E400701D51120E8
:202740007CBD2178C80802D16078C20804D007207CBD0000D8010020890801D1800801D079
:202760000620F5E7ADF8005020788DF8020060788DF803000220ADF80400684609F084F8F5
:2027800005F0EFF9E4E70122FFF71EB80022FFF71BB870B505460C460846FEF772FD08B18A
:2027A000102070BD2146284609F087F8BDE8704005F0D7B9FEB506460D4614461046FEF79E
:2027C0003AFD08B11020FEBD002000908DF8026001900290ADF8005020788DF80300606887
:2027E00001902089ADF808006089ADF80A00684609F070F805F0B5F9FEBD0EB58DF80200A3
:202800000020ADF80010ADF808008DF803000190ADF80A00684609F05DF805F0A2F90EBD17
:2028200010800888508048889080C88810818888D080002050819081704710B505F032F9E9
:20284000040000D1FFDF6078401C607010BD0CB51CA2D2E90012CDE900120079694601EBCC
:20286000501000780CBD0278520804D0012A02D043F202207047FEF73EBE1FB56A46FFF799
:20288000CFFF684609F0C1FA05F06BF904B010BD10B500231A4603E0845C2343521CD2B2CB
:2028A0008A42F9D30BB1002010BD012010BD00B528B1012804D0022802D0FFDFFEE7FF2080
:2028C00000BD00000706050403020100C64800210160416070472DE9FF4792B09A461E9FFC
:2028E00004461AB1072016B0BDE8F08701258DF842504FF4C050ADF84000002210A92846FC
:2029000003F082FF0028EED18DF842504FF428500026ADF840001C2231466846079615F07A
:202920006DFF9DF81C000DF11C0920F00F00401C20F0F00010308DF81C0020788DF81D00C1
:2029400061789DF81E000DF1400861F3420040F001008DF81E009DF8000008AA40F00200C2
:202960008DF800002089ADF83000ADF832606089ADF83400CDF82C9060680E900AA9CDF8FC
:202980002880684603F035FD0028ACD16068FEF796FC40B16068FEF79BFC20B9607800F0E2
:2029A0000300022801D0012000E000208E4C08AA0AA9A071BDF8200020808DF8425042F6E4
:2029C0000120ADF840009DF81E0020F00600801C20F001008DF81E000220ADF83000ADF83C
:2029E000340013A80E90684603F003FD00288AD1BDF820006080BAF1000F05D007F060FE8D
:202A0000F0BB07F05DFED8BB17B1012F42D049E08DF8425042F6A620ADF840001C2200219A
:202A20006846079615F0EAFE9DF81C00ADF8345020F00F00401C20F0F00010308DF81C0028
:202A40009DF81D0008AA20F0FF008DF81D009DF81E000AA920F0060040F00100801C8DF893
:202A60001E009DF800008DF8445040F002008DF8000011A8CDE90A89ADF830500E9000E02E
:202A80000EE0684603F0B5FC0028B0D1BDF82000A08008E007F014FE10B907F011FE08B1DF
:202AA000032020E7A68000201DE701B582B00220ADF800004C4802AB6A464088002104F025
:202AC0009FF8BDF80010022900D003200EBD1CB5002100910221ADF800100190FEF7D1FB04
:202AE00008B110201CBD40486A4641884FF6FF7004F0CEFABDF800100229F3D003201CBDF4
:202B0000FEB5394C06461546A0790F46C00705D00846FEF790FB18B11020FEBD0F20FEBD60
:202B2000F82D33D83046FEF786FB18BB208801A903F062F90028F2D130788DF80500208841
:202B400001A904F03BF80028E9D100909DF800009DF8051040F002008DF80000090703D059
:202B600040F008008DF800002088694603F0C3FF0028D4D1ADF8085020883B4602AA0021CC
:202B800004F03EF8BDF80810A942C8D00C20FEBD7CB505460020009001900888ADF80000E2
:202BA0000C4628460195FEF78AFB18B92046FEF768FB08B110207CBD15B1BDF8000050B118
:202BC00009486A4601884FF6FF7004F061FABDF8001021807CBD0C207CBD034880880028E9
:202BE00000D00120704700000E0000204FF0E0214FF40040C1F88001BFF34F8FBFF36F8FC2
:202C000000F020B810B5044600F01CF8002C09D0114A114811491432114B012C03D0022CF6
:202C200006D0FFDF10BD022404601160200604E00324046011604FF40000186010BD00B5D5
:202C4000FFDF00BD044800210160016004494FF02070091D0860704700F50040680200208A
:202C600004F5014014F07AB914F02AB915F0E6BF00F0C4B9314901200860704770B50D20D9
:202C800000F03DF82E4C0020C4F800010125C4F804530D2000F044F825604FF0E0216014ED
:202CA000C1F8000170BD10B50D2000F028F82448012141600021C0F80011BDE810400D20F0
:202CC00000F02EB81E49D1F80001012808D11B48001D00680022C0B2C1F800210CF0A8B938
:202CE000704710B5164800BFD0F800110029FBD0FFF7E8FFBDE810400D2000F011B800288E
:202D00000DDB00F01F02012191404009800000F1E020C0F88011BFF34F8FBFF36F8F7047CD
:202D2000002809DB00F01F02012191404009800000F1E020C0F880127047000004D50040AF
:202D400000D000408F4909680160002070478D4908600020704701218A0720B1012804D04C
:202D600042F204007047916700E0D1670020704785490120086042F20600704708B5042351
:202D8000814A1907103230B1C1F80433106840F0010010600BE0106820F001001060C1F87F
:202DA00008330020C1F80801784800680090002008BD011F0B2909D8734910310A6822F0A3
:202DC0001E0242EA400008600020704742F205007047000100F18040C0F8041900207047DA
:202DE000000100F18040C0F8081900207047000100F18040D0F80009086000207047012886
:202E000001D907207047624A52F8200002680A43026000207047012801D9072070475C4A6D
:202E200052F8200002688A43026000207047012801D907207047564A52F8200000680860FD
:202E400000207047020053494FF0000003D0012A01D0072070470A60704708B54FF400727E
:202E6000510510B1C1F8042308E0C1F808230020C1F8240145481C3000680090002008BDDB
:202E800008B58022D10510B1C1F8042308E0C1F808230020C1F81C013C48143000680090DA
:202EA000002008BD08B54FF48072910510B1C1F8042308E0C1F808230020C1F820013348C3
:202EC000183000680090002008BD2E493831096801600020704770B54FF080450024C5F83A
:202EE000084115F052FE28B1C5F82441C5F81C41C5F820414FF0E0210120C1F8000170BDB9
:202F00002DE9F0414FF080440027D4F808013E463D4600B10120804615F037FE88B1D4F88D
:202F2000240108B1012700E00027D4F81C0108B1012600E00026D4F8200108B1012500E009
:202F400000255FEA08004FF0000804D0C4F8088101200BF0C5FF27B1C4F8248109200BF05E
:202F6000BFFF26B1C4F81C810A200BF0B9FF25B1C4F820810B200BF0B3FFBDE8F04113F0A2
:202F800075BF0000000400400005004008010040CCB10100780500400348044A016891421B
:202FA00001D100210160704738000020BEBAFECA0E4A12680C498A420AD118470B4A126872
:202FC000094B9A4204D101B50CF0AAF9BDE80140074909680958084706480749054A064B02
:202FE0007047000000000000BEBAFECA3800002004000020301000203010002016F022BDB9
:203000002CFFFFFFDBE5B15100C001001201FFFF7A000000E9157A000E822A968AEA667661
:203020005E07D4B55289C4BABED81B9610B50446FEF701F908B1102010BD2078C0F30210F1
:20304000042807D86078072804D3A178102901D8814201D2072010BDE078410706D42179BE
:203060004A0703D4000701D4080701D5062010BD002010BD10B513785C08837F64F3C713A0
:20308000837713789C08C37F64F30003C3771078C309487863F34100487013781C090B789B
:2030A00064F347130B701378DB0863F3000048705078487110BD10B5C4780B7864F300033C
:2030C0000B70C478640864F341030B70C478A40864F382030B70C478E40864F3C3030B70B8
:2030E0000379117863F30001117003795B0863F34101117003799B0863F382011170007909
:20310000C00860F3C301117010BD70B514460D46064604F01DFF80B10178182221F00F014F
:20312000891C21F0F001A03100F8081B214615F045FBBDE8704004F00EBF29463046BDE8B0
:2031400070401322FEF759BA2DE9F047064608A8904690E8300489461F46142200212846BE
:2031600015F04CFB0021CAF80010B8F1000F03D0B9F1000F03D114E03878C00711D0206824
:20318000FEF77FF8C0BBB8F1000F07D12068123028602068143068602068A8602168CAF8F7
:2031A00000103878800724D56068FEF788F818BBB9F1000F21D0FEF70FFF0168C6F8681172
:2031C0008188A6F86C11807986F86E0101F019FAFE4FEF60626862B196F8680106F26911FF
:2031E00040081032FEF7E1F910223946606815F0E5FA0020BDE8F08706E0606820B1E86016
:203200006068C6F86401F4E71020F3E730B5054608780C4620F00F00401C20F0F00110311F
:2032200021700020607095F8230030B104280FD0052811D0062814D0FFDF20780121B1EB1D
:20324000101F04D295F8200000F01F00607030BD21F0F000203002E021F0F00030302070CC
:20326000EBE721F0F0004030F9E7F0B591B0022715460C4606463A46ADF80870082103ABAF
:2032800007F0FEFC0490002810D004208DF804008DF80170E034099605948DF818500AA912
:2032A00068460BF008FC00B1FFDF012011B0F0BD10B588B00C460A99ADF80000CBB11868B0
:2032C000CDF80200D3F80400CDF80600ADF80A20102203A815F072FA684608F00CFE04F0CC
:2032E00040FC002803D1A17F41F01001A17708B010BD0020CDF80200E6E72DE9F84F074639
:20330000808A0D4680B28246FEF774F904463878DFF8B88200264FF00209A8F120080F2881
:203320007ED2DFE800F07DCBC5082D5C6BA4E2F0EFBF49BFBF003146504609F0C1FE0500C8
:2033400000D1FFDF98F85C10C90702D0D8F860000BE0032105F11D000BF048FED5F81D00A3
:203360009B49B0FBF1F201FB1200C5F81D0078686867B868A8672078252800D0FFDF97E00B
:203380003146504609F09CFE060000D1FFDF3078810702D52178252904D040F00100307045
:2033A000BDE8F88F85F80090307F287106F11D002D36C5E90206F3E73146504609F080FE01
:2033C000040000D1FFDF2078C10604D5072028703D346C60E4E740F008002070E0E7E07F4D
:2033E000000700D5FFDF387CBA8800F0010301B05046BDE8F04F082107F035BD04B9FFDF51
:20340000796821B1102204F1240015F0D7F928212046FEF702F8002304F124001A4600E0BF
:203420001BE1009021465046FFF742FF112807D029212046FDF7F1FF387A84F82000AFE744
:20344000A07F000700D5FFDF14F81E0F40F008002070E682A661E661C109607861F34100A5
:20346000014660F382016170387AE07098E73146504609F025FE040000D1FFDF022104F1E9
:2034800085000BF0B3FD0420287004F5B4706860B4F8850028824D4810387C346C61C5E978
:2034A00002807DE73146504609F00AFE00B9FFDF3A4621465046BDE8F84F26E604B9FFDF71
:2034C0002078212886D93879012803D1E07F40F00800E0773A4621465046FFF716FE204623
:2034E000BDE8F84F2321FDF798BF3A79AA8005F108030821504607F0C3FBE86020B10520C1
:2035000028704DE7A6E011E03146504609F0D8FD040000D1FFDF04F1620102231022081F04
:2035200009F06AFC06703979417039E73146504609F0C6FD050000D1FFDF95F8840000F0B5
:20354000030001285BD1E07F10F001021CD195F8A000C00714D0D5F8601189B195F8833034
:20356000087C63F387000874A17FCB09D5F8601163F341000874D5F8601162F3000008741A
:2035800095F88800C0072CD0D5F85C0148B395F88330017C63F387010174A07FC309D5F866
:2035A0005C0163F341010174D5F85C0162F300010174B2B1D5F85C01102204F12401883516
:2035C00015F0FCF8287840F0010003E01402002040420F0005F8180B287820F0010005F8A9
:2035E000A00995F8A000800709D595F87C00D5F86421400805F17D011032FDF7D6FF8DF8E9
:20360000009095F884006A4600F003008DF8010095F888108DF8021095F8A0008DF803006F
:203620002146504600F0D6FF2078252805D0212807D0FFDF2078222803D922212046FDF7B5
:20364000ECFE3146504609F04DFD00283FF4B3AEFFDFA5E678684670A2E6FFDFA0E670B564
:20366000FE4C002584F85C5025660BF0F0F904F11001204604F028FC84F8305070BD70B572
:203680000D46FDF7B7FF040000D1FFDF4FF4B8720021284615F0B2F82434022105F1E0007E
:2036A0002C610BF0D5F9002800D0FFDF70BD0A46014602F1E0000BF0ECB970B5054640688F
:2036C000012186B002780D2A05D00E2A02D0FFDF06B070BD01726868C6883046FDF78AFFBD
:2036E000040000D1FFDFA07F20F01000A0772078212806D06868017A09B1007938B104F0AF
:203700002AFCFEF76AF80028E2D0FFDFE0E704F022FCA07F000623D5E07FC00705D094F8F7
:20372000200000F01F00102818D0052084F8230020780025292815D02428E2D131460220EB
:203740000BF0BCFD22212046FDF767FE2946304609F0C8FC0028D4D0FFDFD2E70620E5E7BC
:203760000420E3E72946304609F0AAFC050000D1FFDF25212046FDF750FE03208DF800008D
:20378000694605F1E0000BF07BF90228B9D00028B7D0FFDFB5E72DE9F04F87B09B46904616
:2037A0008A468146FDF726FF040034D02078222831D323282FD0E07F00072CD4002701266D
:2037C0003946484609F07CFC0546694600F029FF009800B9FFDF00983DB1E0350561207891
:2037E000222804D0242802D005E0076103E025212046FDF712FE009801A94670C0F8249049
:20380000A0F80480C0E902AB0BF055F9022802D0002800D0FFDF07B0BDE8F08F70B586B0E5
:203820000546FDF7E7FE0078222814D90021284609F046FC04002CD1FFDF2AE0B4F85E00F8
:2038400004F1620630440178427829B121462846FFF70BFDB0B93BE7ADF8042008212846CC
:2038600002AB07F00DFA03900028F4D005208DF80000694604F1E0000BF002F9022801D0FF
:2038800000B1FFDF02231022314604F15E0009F0E9FAB4F860000028D0D119E710B586B0CC
:2038A0000446FDF7A7FE0078222811D90021204609F006FC040000D1FFDF06208DF8000099
:2038C000694604F1E0000BF0DBF8002800D0FFDF06B010BD2DE9F84F05460C4600270078A4
:2038E000904601093E4604F1080B4FF00109BA4602297DD0072902D00A2907D117E06868C7
:2039000001780D2903D00E2901D0FFDF4BE11A270A26002C6DD0C088A080FDF76BFE05006F
:2039200000D1FFDF59462846FFF770FC3BE10CB1A88BA080287A0B287ED006DC01287CD0C3
:20394000022808D0032804D132E00D2876D00E2875D0FFDF27E11E270926002CDAD0A08805
:20396000FDF748FE5FEA000900D1FFDF287B00F003000128207A18D020F001002072297B84
:20398000890861F341002072297BC90861F382002072297B090961F3C300207299F81E0084
:2039A00040F0400189F81E10FDE040F00100E5E713270D26002CADD0A088FDF71BFE8146FB
:2039C0005146A08809F07CFB050000D1FFDFA86F817801F003010129217A56D021F0010101
:2039E00021728278920862F341012172827801E0CFE08AE0D20862F3820121728278120928
:203A000062F3C3012172027862F306112172427862F3C711217284F809A0C178A1724279DB
:203A2000E17A62F30001E1724279520862F34101E1724279920803E02AE06DE050E065E07F
:203A400062F38201E1724279D20862F3C301E1720279217B62F30001217301E0F401002043
:203A60000279520862F3410121730279920862F3820121730079C00860F3C301217399F848
:203A8000000023282BD92621C6E041F00101A7E718271026CCB3A088FDF7ACFD0090CB46CF
:203AA0005146A08809F00CFB5FEA000900D1FFDFE868A06099F8000040F0040189F800109F
:203AC00099F80100800708D584F80CB000980078232868D9272100989FE084F80CA062E053
:203AE00015270F268CB1A088FDF784FD824606225946E86807F051F884F80E909AF80000B0
:203B0000232850D92721504687E03EE016270926DCB3287B207246E0287B19270E26A4B30A
:203B2000C4F808A0A4F80CA0012807D0022808D003280CD004280AD0FFDF15E084F80890E3
:203B400001E002202072607A20F003000BE0697B042801F00F0141F080012172F3D1607A04
:203B600020F00300401C6072A088FDF743FD05460078212817D0232800D0FFDF5146A088FD
:203B800009F0B0FA2221284647E0FFE7A8F800600EE00CB16888A080287A10B3012809D0A2
:203BA00002283DD0FFDFA8F800600CB12780668000200FE415270F26002CE7D0A088FDF723
:203BC00019FD5146A08809F07BFA050000D1FFDFD5F81D000622594606F0DFFF84F80EA03F
:203BE000E1E717270926002CD0D0A088FDF702FD81465146A08809F063FA050000D1FFDF19
:203C00006878800701D5022000E00120207299F800002328C7D927214846FDF7FEFBC2E7CA
:203C200019270E26002CB1D0A088FDF7E3FC5FEA000900D1FFDFC4F808A0A4F80CA084F83F
:203C400008A0A07A40F00300A07299F81E10C90961F38200A07299F81F2099F81E1012EA59
:203C6000D11F05D099F8201001F01F01102925D020F00800A07299F81F10607A61F3C300A4
:203C80006072697A01F0030101298CD140F004006072E97A607B61F300006073AA7A217BC8
:203CA00062F300012173EA7A520862F341006073A87A400860F34101217374E740F00800CD
:203CC000D8E710B5FE4C30B10146102204F1200014F074FD012084F8300010BD10B5044689
:203CE00000F08FFCF64920461022BDE81040203114F064BD70B5F24D06004FF0000413D077
:203D0000FDF799FA08B110240CE00621304606F02BFF411C05D028665FF0010085F85C009D
:203D200000E00724204670BD0020F7E7007810F00F0204D0012A05D0022A0CD110E0000988
:203D400009D10AE00009012807D0022805D0032803D0042801D0072070470870002070476F
:203D60000620704705282AD2DFE800F003070F171F00087820F0FF001EE0087820F00F000B
:203D8000401C20F0F000103016E0087820F00F00401C20F0F00020300EE0087820F00F00B9
:203DA000401C20F0F000303006E0087820F00F00401C20F0F0004030087000207047072080
:203DC00070472DE9F043814687B00E464FF000080846FDF77DFA88B94846FDF70BFC0500C2
:203DE00003D02878222811D104E043F2020007B0BDE8F08326B9A87F400601D41020F6E70C
:203E0000A87FC10601D4000702D50EB10820EEE7E87F000701D50D20E9E76EB13046FFF779
:203E200005F95FEA0008E2D1FEF7D7FE20B9F078800701D50620DAE700273946484609F004
:203E40003FF9040006D139460022484609F02FF904000CD026B1014632462846FFF70AF922
:203E60006946204600F0DDFB009818B901E00420BDE7FFDF0099022004F1E0024870C1F872
:203E800024904A610F8136B30871201D88612078400908776078C0F340004877307800F029
:203EA0000102887F62F301008877AA7FD20962F382008877EA7F62F3C3008877627862F31A
:203EC00004108877B078C87701F1210230462031FFF7F1F803E00320087105200876252145
:203EE0002846FDF79AFAA87F01A920F04000A87700980AF0E0FD022801D000B1FFDF40460D
:203F000075E72DE9FF4F14466E4A88468FB0994607CA0AAB002683E807000F98FDF76AFBC5
:203F2000050005D02878262805D0082013B073E443F20200FAE701277CBB4FF0000B594642
:203F40000F9809F0BDF8040000D1FFDF4046B8F1850F27D008DC88B181281CD082281DD056
:203F6000B8F1830F09D11BE086281DD088281DD089281DD0B8F18A0F1CD00F2020710F2836
:203F80001AD003F0E5FFC8B1201D8DF8107005902079A8B1E4E00120F0E70DE00220EDE77F
:203FA0000320EBE70520E9E70620E7E70820E5E70920E3E70A20E1E70720B7E71120B5E7B8
:203FC000D4E91D8798F80200B978C0F3C000C1F3C00108405FEA000A30D04846FDF72BF994
:203FE00088BBD9F80C00FDF726F960BBD9F81C00FDF721F938BBD9F80C00A060D9F81C00BB
:20400000E06060787A7842EA500100BF61F341006070B978C0B200EA111161F30000607022
:2040200084F81CB005F11700A061681C606198F8020000F00300012806D03EE060787A7879
:2040400002EA5001E2E716E0B87800F00300012833D198F80410387901408DF8341098F825
:2040600005007A7910408DF83800014325D04846FDF7E1F808B1102058E704F5AE7204F171
:204080008C03CDF80090CDE9013201210DAB52462046FFF759F800288FD109F1100004F5A9
:2040A000B07304F1A4028DE80D0059460EAB52462046FFF749F80028DED16078800703E01A
:2040C000F40100207CB101002AD498F80200B978C0F38000C1F38001084321D039780AAAD3
:2040E00098F8000032F811204300DA4012F0030605D0012E0BD0022E0BD0032E07D0BAF1D0
:20410000000F0DD0012806D0042804D008E00226F5E70126F3E7012901D0042900D10426A4
:20412000A87F40F08000A877E97F6AF30001E9776078800707D50320A071BAF1000F0FD15A
:204140008DF80CB02BE00220022E18D0012E18D0042E2AD084F806B0A87F20F08000A8778E
:2041600025212846FDF759F904A904F1E0000AF087FC10B1022800D0FFDF0020D6E6A071C0
:20418000DEE7A0710D22002104F1200014F036FB207840F00200207001208DF80C0003AAF6
:2041A00029460F9800F016FADAE70120A071D7E72DE9F04387B09046894604460025FDF7B0
:2041C00019FA070004D03878272804D008200EE643F202000BE60021204608F071FF0400E7
:2041E00000D1FFDFA6795FEA090005D0012821D0B9F1020F26D110E0B8F1000F22D1012E34
:2042000005D0022E05D0032E05D0FFDF2EE00C252CE001252AE0022528E04046FDF70BF8B9
:20422000B0B9032E0ED11022414604F11D0014F0C5FA1BE0012E02D0022E03D104E0B8F1EA
:20424000000F13D00720D2E54046FCF7F4FF08B11020CCE51022002104F11D0014F0CEFA57
:204260000621404606F080FCC4F81D002078252140F0020020703846FDF7CFF82078C1070D
:2042800013D020F00100207002208DF8000004F11D0002908DF804506946C3300AF0F0FBEF
:2042A000022803D010B1FFDF00E0257700209EE530B587B00D460446FDF79CF960B10021CF
:2042C000204608F0FDFE04000CD02846FCF7B3FF28B1102007B030BD43F20200FAE7207835
:2042E000400701D40820F5E7294604F13D002022054614F063FA207840F01000207001079F
:204300000FD520F00800207007208DF80000694604F1E00001950AF0B3FB022801D000B1F7
:20432000FFDF0020D6E72DE9F0410D460746FDF761F918B10078272819D103E043F20200F9
:20434000BDE8F08101260021384608F0B9FE040000D1FFDFA079022809D16078C00706D08D
:204360002A4621463846FEF780FF10B10EE00820E6E7B4F860000E280AD204F16201022335
:204380001022081F08F038FD067045700020D7E71120D5E770B5064614460D460846FCF742
:2043A0004AFF18B92046FCF76CFF08B1102070BDA6F57F40FF380ED03046FDF71BF938B133
:2043C000417822464B08811C1846FDF7EEF807E043F2020070BD2046FDF760FE0028F9D19F
:2043E0001021E01D0AF002FEE21D294604F1170000F027F9002070BD2DE9F04104468AB0F3
:2044000015460E4600270846FCF762FF18B92846FCF75EFF10B110200AB091E72046FDF718
:20442000E9F85FEA000804D098F80000272810D102E043F20200EFE70021204608F040FE0A
:20444000040000D1FFDF2078400702D56078800701D40820E0E7D4E91D10497801B18DB135
:20446000407800B176B1ADB1EA1D06A8E16800F0E8F8102206A905F1170014F08EF918B13E
:20448000042707E00720C7E71022E91D04F12D0014F094F92EB11022F11D04F11D0014F015
:2044A0008DF92078252140F0020020704046FCF7B4FF2078C10715D020F0010020700220A2
:2044C0008DF8000004F11D000290103003908DF804706946B3300AF0D3FA022803D010B1D0
:2044E000FFDF00E02777002096E7F8B515460E460746FDF77FF8040004D02078222804D021
:204500000820F8BD43F20200F8BD3046FCF793FE18B92846FCF78FFE08B11020F8BD0095E6
:204520003288B31C21463846FEF7C2FE112815D00028F3D1297C4A08A17F62F3C711A177F2
:204540002A7CE17F62F30001E177297C890884F82010A17F21F04001A177F8BDA17F090756
:20456000FBD4D6F80200C4F83600D6F80600C4F83A003088A0861022294604F1240014F044
:204580001DF9287C4108E07F61F34100E077297C61F38200E077287C800884F82100A07F13
:2045A00040F00800A0770020D3E770B50D46FDF721F8040005D02846FCF763FE20B11020B1
:2045C00070BD43F2020070BD29462046FEF71EFE002070BD70B51546064603F0B9FC04009F
:2045E00000D1FFDF207820F00F00801C20F0F0002030207066802868A060BDE8704003F01B
:20460000AABC10B5134C94F83000002808D104F12001A1F110000AF075FA012084F8300065
:2046200010BD10B190F8B9202AB10A4890F8350018B1002003E0B83001E0064834300860F2
:20464000704708B50023009313460A4608F037FF08BD0000F4010020F0B5007B059F1E4657
:2046600014460D46012800D0FFDF0C2030803A203880002C08D0287A032806D0287B012855
:2046800000D0FFDF17206081F0BDA889FBE72DE9F0470D4686B095F80C900E991446B9F1EA
:2046A000010F0BD01022007B2E8A9046052807D0062839D0FFDF06B0BDE8F0870222F2E7EC
:2046C000E8890C2200EB400002EB4000188033200880002CEFD0E8896081002720E0009676
:2046E000688808F1020301AA696900F0A1FF06EB0800801C07EB470186B204EB4102BDF8D1
:2047000004009081F848007808B1012300E000230DF1060140460E320AF05DFA7F1CBFB2C4
:204720006089B842DBD8C6E734200880E889B9F1010F11D0122148430E301880002CBAD004
:20474000E88960814846B9F1010F00D00220207300270DF1040A1FE00621ECE70096688888
:2047600008F1020301AA696900F062FF06EB0800801C86B2B9F1010F12D007EBC70004EB5C
:204780004000BDF80410C18110220AF10201103014F014F87F1CBFB26089B842DED88AE738
:2047A00007EB470104EB4102BDF80400D0810AF10201404610320AF030FAEBE72DE9F0477A
:2047C0000E4688B090F80CC096F80C80378AF5890C20DFF81493109902F10C04BCF1030F8B
:2047E00008D0BCF1040F3DD0BCF1070F75D0FFDF08B061E705EB850C00EB4C00188031208D
:204800000880002AF4D0A8F1060000F0FF0A558124E01622002101A813F0F0FF009770882D
:20482000434601AA716900F003FFBDF804002080BDF80600E080BDF80800208199F8000015
:2048400008B1012300E00023A21C0DF10A0150460AF0C1F907EB080087B20A346D1EADB20C
:20486000D7D2C5E705EB850C00EB4C00188032200880002ABCD0A8F1050000F0FF0A558196
:2048800037E000977088434601AA716900F0D0FE9DF80600BDF80410E1802179420860F3AA
:2048A000000162F34101820862F38201C20862F3C301020962F30411420962F34511820925
:2048C00062F386112171C0096071BDF80700208199F8000010B1012301E00EE00023224693
:2048E0000DF1090150460AF076F907EB080087B20A346D1EADB2C4D27AE7A8F1020084B28E
:2049000005FB08FC0CF10E00188035200880002AA7D05581948100971FFA8CF370880E3220
:20492000716900F085FE63E72DE9F84F1E460A9D0C4681462AB1607A00F58070D080E0890C
:20494000108199F80C000C274FF000084FF00E0A0D2872D2DFE800F09D070E1B272F374589
:20496000546972727200214648460095FFF774FEBDE8F88F207B9146082802D0032800D097
:20498000FFDF3780302009E0A9F80A80F0E7207B9146042800D0FFDF378031202880B9F1A1
:2049A000000FF1D1E4E7207B9146042800D0FFDF37803220F2E7207B9146022800D0FFDFE3
:2049C00037803320EAE7207B1746022800D0FFDF3420A6F800A02880002FC9D0A7F80A8001
:2049E000C6E7207B1746042800D0FFDF3520A6F800A02880002FBBD04046A7F80A8012E0A2
:204A0000207B1746052802D0062800D0FFDF1020308036202880002FAAD0E0897881A7F83B
:204A20000E80B9F80E00B881A2E7207B9146072800D0FFDF37803720B0E72AE04FF0120018
:204A400018804FF038001700288091D0E0897881A7F80E80A7F8108099F80C000A2805D0C5
:204A60000B2809D00C280DD0FFDF81E7207B0A2800D0FFDF01200AE0207B0B2800D0FFDFD1
:204A8000042004E0207B0C2800D0FFDF052038736EE7FFDF6CE770B50C460546FCF7AAFDDF
:204AA00020B10078222804D2082070BD43F2020070BD0521284608F003FB206008B10020F1
:204AC00070BD032070BD30B44880087820F00F00C01C20F0F000903001F8080B1DCA81E816
:204AE0001D0030BC03F037BA180000202DE9FF4784B00027824602970798904689463C46B3
:204B0000092528B907A95046FFF7C5FF00285CD10798123003F023FF401D20F00306B9F11B
:204B2000000F05D00798017B79BB0525046806E098F80000092812D00D2822D0FFDF07987F
:204B40000121123003F03DFFADF80C00024602AB2946504606F094F8070017D01EE0079909
:204B6000032548680028EAD0497B428871439142E5D98AB2B3B2011D08F02AF904460780FD
:204B8000DDE7079C04250834D9E721E00CB1208810B1032D18D01BE0A01C029007983A46E2
:204BA0001230C8F80400A8F802A003A94046029B03F014FFC8B10A2815D2DFE800F007097F
:204BC0001414100B0D141412132011E600200FE611200DE608200BE643F2030008E6072082
:204BE00006E60D2004E6032002E6BDF80C002346CDE900702A465046079900F029FD5FB983
:204C0000032D09D10798B3B2417B446871438AB2211D204608F0F0F8B9F1000FD6D00799AB
:204C200081F80C90D2E72DE9FE4F91461A881C468A468046FAB102AB494606F021F80500D7
:204C400019D04046A61C278808F07FFB072100913B463246294607F0A1FF20882346CDE983
:204C600000504A465146404600F0F2FC002020800120BDE8FE8F0020FBE710B586B01C46E7
:204C8000AAB104238DF800301388ADF808305288ADF80A208A788DF80E200988ADF80C10B5
:204CA00000236A462146FFF721FF06B010BD1020FBE770B50D46052108F002FA040000D1A8
:204CC000FFDF294604F11200BDE8704003F062BE2DE9F8430D468046002603F039F9044619
:204CE0002878102878D2DFE800F0773B34533131123131310831313131312879001FC0B26C
:204D0000022801D0102810D114BBFFDF35E004B9FFDF0521404608F0D3F9007B032806D036
:204D200004280BD0072828D0FFDF072655E02879801FC0B2022820D050B1F6E72879401F5B
:204D4000C0B2022819D0102817D0EEE704B9FFDF13E004B9FFDF287901280ED1172137E0B9
:204D60000521404608F0ACF9070000D1FFDF07F11201404603F0EBFD2CB12A46214640468E
:204D8000FFF7A1FE29E013214046FDF749FB24E004B9FFDF0521404608F092F9060000D1DE
:204DA000FFDF694606F1120003F0DBFD060000D0FFDFA988172901D2172200E00A46BDF87C
:204DC0000000824202D9014602E005E01729C5D3404600F04DFCD0E7FFDF3046BDE8F88364
:204DE000401D20F0030219B102FB01F0001D00E000201044704713B5009858B10024684626
:204E000007F090FF002C04D1F749009A4A6000220A701CBD01240020F2E72DE9F0470C4655
:204E2000154624220021204613F0E8FC05B9FFDFA87860732888DFF8B0A3401D20F0030189
:204E4000AF788946DAF8040007F08AFF060000D1FFDF4FF000082660A6F8008077B109FB3A
:204E600007F1091D0AD0DAF8040007F079FF060000D1FFDF6660C6F8008001E0C4F804801B
:204E8000298804F11200BDE8F04703F051BD2DE9F047804601F112000D46814603F05FFDFD
:204EA000401DD14F20F003026E7B14462968786807F081FF3EB104FB06F2121D03D069687C
:204EC000786807F078FF052008F0A6F80446052008F0AAF8201A012802D1786807F035FF7F
:204EE00049464046BDE8F04703F038BD70B50546052108F0E5F8040000D1FFDF04F11201B3
:204F00002846BDE8704003F022BD2DE9F04F91B04FF0000BADF828B0ADF804B047880C4625
:204F2000054692460521384608F0CAF8060000D1FFDF24B1A780A4F806B0A4F808B02978F8
:204F400009220B20B2EB111F73D12A7A04F1100138274FF00C084FF012090291102A69D22C
:204F6000DFE802F068F2F1F08008D3898EA03DDCF3EEB7B7307B022800D0FFDFA88908EB1C
:204F8000C001ADF804103021ADF82810002C25D06081B5F80E8000271DE004EBC709317C9C
:204FA00089F80E10F189A9F80C10CDF800806888042305AA296900F03BFBBDF81410A9F8DE
:204FC000101008F10400BDF816107F1C1FFA80F8A9F81210BFB26089B842DED80CE1307B48
:204FE000022800D0FFDFE98908EBC100ADF804003020ADF8280095F80C90002CA9F10400FA
:20500000C0B20F90EAD06181B5F81080002725E0CDF8008068884B4603AA696900F008FB42
:2050200008EB09001FFA80F86F48007818B1012302E0DDE0DAE0002304EBC702009204A954
:205040000C320F9809F0C7FD009ABDF80C007F1C1082009ABDF80E00BFB250826089B842A3
:20506000D6D8C9E00AA8009001AB224629463046FFF70DFBC0E0307B082805D0FFDF03E08F
:20508000307B082800D0FFDFE8891030ADF804003620ADF82800002C3FD0A9896181F18941
:2050A000A18127E0307B092800D0FFDFA88901460C30ADF804003720ADF82800002C2CD094
:2050C0006181E8890090AB89688804F10C02296955E0E8893921103080B2ADF80400ADF874
:2050E0002810002C72D0A9896181287A0E280AD002212173E989E181288A0090EB89688813
:205100006969029A3BE00121F3E70AA8009001AB224629463046FFF751FB6DE0307B0A2863
:2051200000D0FFDFADF80490ADF828704CB3A9896181A4F810B0A4F80EB0012020735BE093
:2051400020E002E030E038E041E0307B0B2800D0FFDF288AADF828701230ADF8040084B189
:2051600004212173A9896181E989E181298A2182688A00902B8A688804F11202696900F046
:2051800057FA39E0307B0C2800D0FFDFADF80490ADF828703CB305212173A4F80AB0A4F807
:2051A0000EB0A4F810B027E00AA8009001AB224629463046FFF750FA1EE00AA8009001AB67
:2051C000224629463046FFF7AFFB15E034E03B21ADF80400ADF8281074B30120E080A4F8B3
:2051E00008B084F80AB007E018000020FFDF03E0297A012917D0FFDFBDF80400AAF80000F4
:205200006CB1BDF828002080BDF804006080BDF82800392803D03C2801D086F80CB011B01A
:205220000020BDE8F08F3C21ADF80400ADF8281014B1697AA172DFE7AAF80000EFE72DE938
:20524000F84356880F46804615460521304607F037FF040000D1FFDF123400943B46414661
:2052600030466A6803F0EFFCB8E570B50D46052107F026FF040000D1FFDF294604F1120088
:20528000BDE8704003F078BB70B50D46052107F017FF040000D1FFDF294604F11200BDE81A
:2052A000704003F096BB70B50546052107F008FF040000D1FFDF04F1080321462846BDE839
:2052C00070400422AFE470B50546052107F0F8FE040000D1FFDF214628462368BDE870407A
:2052E0000522A0E470B50646052107F0E9FE040000D1FFDF04F1120003F031FB401D20F048
:20530000030511E0011D00880322431821463046FFF789FC00280DD0607BABB2684382B2FA
:205320006068011D07F09EFD6068002802D041880029E7D170BD70B50E46054602F008FEA0
:20534000040000D1FFDF0120207266726580207820F00F00C01C20F0F00030302070BDE802
:20536000704002F0F8BD602801D0072070470878C74900F001000870002070472DE9F04386
:205380008BB00D461446814606A9FFF784FB002814D14FF6FF7601274FF420588CB1032030
:2053A0008DF800001020ADF8100007A8059007AA204604A909F033FC78B107200BB0BDE8A3
:2053C000F0830820ADF808508DF80E708DF80000ADF80A60ADF80C800CE00698A178017455
:2053E0002188C1818DF80E70ADF80850ADF80C80ADF80A606A4602214846069BFFF776FB19
:20540000DCE708B501228DF8022042F60202ADF800200A4603236946FFF72FFC08BD08B579
:2054200001228DF8022042F60302ADF800200A4604236946FFF721FC08BD00B587B079B18C
:2054400002228DF800200A88ADF808204988ADF80A1000236A460521FFF748FB07B000BDEE
:205460001020FBE709B1072307E40720704770B588B00D461446064606A9FFF70CFB002843
:205480000ED17CB10620ADF808508DF80000ADF80A40069B6A460821DC813046FFF726FB05
:2054A00008B070BD05208DF80000ADF80850F0E700B587B059B107238DF80030ADF80820E7
:2054C000039100236A460921FFF710FBC6E71020C4E770B5064688B00C4600250846FBF752
:2054E000AAFEF0B906A93046FFF7D5FA0028D7D106980121123003F064FA2178062921D293
:20550000DFE801F0200505160318801E80B2C01E82B2E08808B1A3681BB1904203D90C20C4
:20552000BEE71020BCE7042904D0A08850B901E00620B5E7012913D0022905D004291CD0F8
:2055400005292AD00720ABE709208DF800006088ADF80800E088ADF80A00A068039023E072
:205560000A208DF800006088ADF80800E088ADF80A00A0680A25039016E00B208DF8000060
:205580006088ADF80800A088ADF80A00E088ADF80C00A0680B25049006E00C208DF8000023
:2055A00060788DF808000C256A4629463046069BFFF79CFA74E700B587B00D228DF8002078
:2055C000ADF8081000236A461946FFF78FFA45E700B587B071B102228DF800200A88ADF823
:2055E00008204988ADF80A1000236A460621FFF77DFA33E7102031E770B586B00646012062
:205600000D46ADF808108DF80000014600236A463046FFF76BFA040008D12946304601F057
:2056200009FB0021304601F023FB204606B070BDF8B51D4616460F46069C07F074FEE41DAA
:20564000A1B200912B463246394607F073FAF8BD30B41146DDE902423CB1032903D0002391
:2056600030BC05F000BC0123FAE71A8030BC704770B50C460546FFF71CFB2146284601F0B6
:20568000E8FA2846BDE87040012101F0F1BA00001800002018B18178012938D101E0102069
:2056A0007047018842F60112881A914231D018DC42F60102A1EB020091422AD00CDC41B383
:2056C000B1F5C05F25D06FF4C050081821D0A0F57060FF381BD11CE001281AD002280AD1F0
:2056E00017E0B0F5807F14D008DC012811D002280FD003280DD0FF2809D10AE0B0F5817F9C
:2057000007D0A0F58070033803D0012801D0002070470F2070470A281FD008DC0A2818D247
:20572000DFE800F0191B1F1F171F231D1F21102815D008DC0B2812D00C2810D00D2816D045
:205740000F2806D10DE011280BD084280BD087280FD0032070470020704705207047072071
:2057600070470F20704704207047062070470C20704743F20200704738B50C46050041D0AE
:205780006946FEF7D3FA002819D19DF80010607861F3020060706946681CFEF7C7FA0028D2
:2057A0000DD19DF80010607861F3C5006070A978C1F34101012903D0022905D0072038BD75
:2057C000217821F0200102E0217841F020012170410704D0A978C90861F386106070607800
:2057E00010F0380F07D0A978090961F3C710607010F0380F02D16078400603D5207840F085
:2058000040002070002038BD70B504460020088015466068FFF7B0FF002816D12089A189E2
:20582000884211D860688078C0070AD0B1F5007F0AD840F20120B1FBF0F200FB12102880A7
:2058400007E0B1F5FF7F01D90C2070BD01F201212980002070BD10B50478137864F30003D9
:2058600013700478640864F3410313700478A40864F3820313700478E40864F3C303137010
:205880000478240964F3041313700478640964F3451313700078800960F38613137031B101
:2058A0000878C10701D1800701D5012000E0002060F3C713137010BD4278530702D002F0FB
:2058C000070306E012F0380F02D0C2F3C20300E001234A7863F302024A70407810F0380F6A
:2058E00002D0C0F3C20005E0430702D000F0070000E0012060F3C5024A7070472DE9F04F88
:2059000095B00D00824613D012220021284612F075FF4FF6FF7B05AA0121584604F01BFF15
:205920000024264637464FF420586FF4205972E0102015B0BDE8F08F9DF81E0001280AD1A1
:20594000BDF81C1041450BD011EB09000AD001280CD002280CD0042C0ED0052C0FD10DE00F
:20596000012400E00224BDF81A6008E0032406E00424BDF81A7002E0052400E00624BDF8A7
:205980001A10514547D12C74BEB34FF0000810AA4FF0070ACDE90282CDE900A80DF13C09F2
:2059A0001023CDF8109042463146584604F09FFF08BBBDF83C002A46C0B210A909F02DF9B2
:2059C000C8B9AE81CFB1CDE900A80DF1080C0AAE40468CE84102132300223946584604F0C9
:2059E00086FF40B9BDF83C00F11CC01EC0B22A1D09F013F910B103209BE70AE0BDF8290061
:205A0000E881062C05D19DF81E00A872BDF81C00288100208DE705A804F0A9FE00288BD06F
:205A2000FFF779FE85E72DE9F0471C46DDE90887DDF8289015460E00824600D1FFDF022DED
:205A400001D0012100E0002106F1140003F044FD064602463B462946504605F011F9C8F83A
:205A6000000040B90CB1208818B145B11120BDE8F087A41C3C60A9F800600020F7E713202E
:205A8000F5E7F0B41446DDE904528DB1002314B1022C09D101E0012306E00D7CEE0703D0A6
:205AA00025F0010501230D742146F0BC05F0DBB91A80F0BC70472DE9FE4F91461A881C464F
:205AC0008A468046FAB102AB494605F0D9F8050019D04046A61C278807F037FC07210091BB
:205AE0003B463246294607F059F820882346CDE900504A4651464046FFF7C3FF00202080BA
:205B00000120BDE8FE8F0020FBE72DE9F04786B082460EA8904690E8B000894604AA05A906
:205B200003A88DE807001E462A4621465046FFF77AFF039901B101213970002818D1FA4991
:205B400004F1140204AB0860039805998DE8070042464946504604F078F8A8B1092811D2F0
:205B6000DFE800F005080510100A0C0C0E00002006B07CE71120FBE70720F9E70820F7E7B3
:205B80000D20F5E70320F3E7BDF810100398CDE9000133462A4621465046FFF772FFE6E7BE
:205BA0002DE9F04389B01646DDE910870D4681461C461422002103A812F020FE01200221C8
:205BC0008DF810108DF80C008DF81170ADF8146064B1A278D20709D08DF81600E088ADF8E7
:205BE0001A00A088ADF81800A068079008A80095CDE90110424603A948466B68FFF785FFEC
:205C000009B0BDE8F083F0B58BB000240646069407940727089405A8099401940097029458
:205C2000CDE903400D4610232246304604F05FFE78B90AA806A9019400970294CDE9031099
:205C4000BDF8143000222946304604F0F0FB002801D0FFF760FD0BB0F0BD04F081BA2DE96C
:205C6000FC410C468046002602F072F9054620780D287DD2DFE800F0BC0713B325BD494931
:205C80006383AF959B00A848006820B1417841F010014170ADE0404602F08AF9A9E0042134
:205CA000404607F00DFA070000D1FFDF07F11401404603F0A5FBA5BB13214046FCF7B0FBCC
:205CC00097E00421404607F0FBF9070000D1FFDFE088ADF800000020B8819DF800000107FE
:205CE00004D5C00602D5A088B88105E09DF8010040067ED5A088F88105B9FFDF22462946A5
:205D0000404601F0C5FC022673E0E188ADF800109DF8011009060FD5072803D006280AD00F
:205D20000AE024E00421404607F0CAF9060000D1FFDFA088F0810226CDB9FFDF17E004211A
:205D4000404607F0BDF9070000D1FFDF07F1140004F03DFA90F0010F02D1E079000648D544
:205D6000387C022640F00200387405B9FFDF00E03EE022462946404601F08AFC39E00421BD
:205D8000404607F09DF9017C002D01F00206C1F340016171017C21F002010174E7D1FFDFEA
:205DA000E5E702260121404602F034F921E00421404607F085F90546606800902089ADF816
:205DC000040001226946404602F045F9287C20F0020028740DE0002DC9D1FFDFC7E702267D
:205DE00000214046FFF750FA002DC0D1FFDFBEE7FFDF3046BDE8FC813EB50C0009D00146E6
:205E00006B4601AA002004F0F8FD20B1FFF783FC3EBD10203EBD00202080A0709DF8050047
:205E200002A900F00700FDF79DFF50B99DF8080020709DF8050002A9C0F3C200FDF792FFBB
:205E400008B103203EBD9DF8080060709DF80500C109A07861F30410A0709DF805108909CE
:205E600061F3C300A0709DF80410890601D5022100E0012161F342009DF8001061F3000039
:205E8000A07000203EBD70B5144606460D4651EA040005D075B10846FBF711FA78B901E022
:205EA000072070BD2946304604F011FE10B1BDE8704030E454B12046FBF701FA08B110203B
:205EC00070BD21463046BDE8704095E7002070BD2DE9FC5F0C4690460546002701780822EC
:205EE000007A3E46B2EB111F7ED104F10A0100910A31821E4FF0020A04F1080B0191092A04
:205F000073D2DFE802F0ECDF05F427277AA9CD006888042107F0D4F8060000D1FFDFB089BB
:205F200020B152270726C2E05802002051271026002C7DD06888A0800120A071A889002212
:205F40000099FFF7A0FF002873D1A8892081288AE081D1E0B5F81290072824D1E87B000635
:205F600021D5512709F1140086B2002CE1D0A88900220099FFF787FF00285AD16888A080C5
:205F800084F806A0A88920810120A073288A2082A4F81290A88A009068884B46A969019A57
:205FA00001F052FBA8E0502709F1120086B2002C3ED0A88900225946FFF765FF002838D1A9
:205FC0006888A080A889E080287A072813D002202073288AE081E87BC0096073A4F8109069
:205FE000A88A0090688801E083E080E04B4604F11202A969D4E70120EAE7B5F8129051272B
:2060000009F1140086B2002C66D06888042107F057F883466888A080A88900220099FFF7C2
:2060200032FF00286ED184F806A0A889208101E052E067E00420A073288A2082A4F81290B1
:20604000A88A009068884B46A969019A01F0FCFAA989ABF80E104FE06888FBF7CBFA074653
:206060006888042107F02CF8064607B9FFDF06B9FFDF687BC00702D05127142601E05027E3
:2060800012264CB36888A080502F06D084F806A0287B594601F0E8FA2EE0287BA11DF9E7DE
:2060A000FE49A8894989814205D1542706269CB16888A08020E053270BE06888A080A88953
:2060C000E08019E06888042106F0FAFF00B9FFDF55270826002CF0D1A8F8006011E05627C7
:2060E0000726002CF8D06888A080002013E0FFDF02E0012808D0FFDFA8F800600CB1278059
:2061000066800020BDE8FC9F57270726002CE3D06888A080687AA071EEE7401D20F0030067
:2061200009B14143091D01EB4000704713B5DB4A00201071009848B10024684606F0F2FD42
:20614000002C02D1D64A009911601CBD01240020F4E770B50D461446064686B05C2200212A
:20616000284612F04BFB04B9FFDFA0786874A2782188284601F0A3FA0020A881E8812288BF
:2061800005F11401304603F01FF96A460121304604F0E1FA1AE000BF9DF80300000715D51A
:2061A000BDF806103046FFF72EFD9DF80300BDF8061040F010008DF80300BDF80300ADF8F5
:2061C0001400FF233046059A04F046FC684604F0CEFA0028E0D006B070BD10B50C4601F110
:2061E000140003F029F90146627C2046BDE8104001F09ABA30B50446A84891B04FF6FF7598
:20620000C18905AA284604F0A6FA30E09DF81E00A0422AD001282AD1BDF81C00B0F5205FCB
:2062200003D042F60101884221D1002002AB0AAA0CA9019083E8070007200090BDF81A10C6
:2062400010230022284604F052FB38B9BDF828000BAAC0B20CA908F0E0FC10B1032011B017
:2062600030BD9DF82E00A04201D10020F7E705A804F07DFA0028C9D00520F0E770B5054677
:20628000042106F01DFF040000D1FFDF04F114010C46284603F0B4F821462846BDE8704081
:2062A00003F0B5B870B58AB00C460646FBF7A2F9050014D02878222827D30CB1A08890B101
:2062C00001208DF80C0003208DF8100000208DF8110054B1A088ADF81800206807E043F210
:2062E00002000AB070BD0920FBE7ADF8180005900421304606F0E4FE040000D1FFDF04F13D
:20630000140003F0B0F8000701D40820E9E701F01FFE60B108A802210094CDE9011095F820
:20632000232003A930466368FFF7EFFBD9E71120D7E72DE9F04FB2F802A0834689B01546A0
:2063400089465046FBF756F907460421504606F0B7FE0026044605964FF002080696ADF84F
:206360001C6007B9FFDF04B9FFDF4146504604F0A6FE50B907AA06A905A88DE80700424699
:20638000214650466368FFF74EFB444807AB0660DDE9051204F11400CDF80090CDE903203E
:2063A000CDE9013197F82320594650466B6803F0A3F806000AD0022E04D0032E14D0042E62
:2063C00000D0FFDF09B03046BDE8F08FBDF81C000028F7D00599CDE9001042462146504613
:2063E0006368FFF74EFBEDE7687840F008006870E8E72DE9F04F99B004464FF00008274862
:20640000ADF81C80ADF82080ADF82480A0F80880ADF81480ADF81880ADF82C80ADF8288079
:20642000007916460D464746012808D0022806D0032804D0042802D0082019B0C4E72046A7
:20644000FAF7F9FE70BB2846FAF7F5FE50BB6068FAF73EFF30BB606848B1608921898842CD
:2064600002D8B1F5007F01D90C20E6E780460EAA06A92846FFF7C8F90028DED16868807859
:20648000C0F34100022808D19DF8190010F0380F03D02869FAF713FF20B904E05802002072
:2064A0002000002022E005A92069FFF765F90028C3D1206948B1607880079DF8150000F0D8
:2064C000380001D5F0B300E0E0BB9DF8140080060ED59DF8150010F0380F03D06068FAF701
:2064E000EEFE18B96068FAF7F3FE08B11020A4E70AA96069FFF740F900289ED1606940B1C5
:206500009DF8290000F0070101293CD110F0380F39D00BA9A069FFF72FF900288DD19DF848
:20652000280080062FD49DF82C0080062BD4A06950B19DF82D0000F00701012923D110F082
:20654000380F00E01FE01ED0E06818B10078D0B11C2818D20FAA611C2046FFF77CF90121C6
:20656000384661F30F2082468DF85210B94642F603000F46ADF850000DF13F0218A9286857
:2065800008F04DFB08B1072057E79DF8600015A9CDF80090C01CCDE9019100F0FF0B002354
:2065A0000BF20122514614A804F000F8F0BBBDF854000C90FE482A8929690092CDE9011048
:2065C0006B89BDF838202868069903F0EFFF01007ED120784FF0020AC10601D480062BD555
:2065E000CDF80C90606950B90AA906A8FFF764F99DF8290020F00700401C8DF829009DF840
:20660000280008A940F0C8008DF828008DF8527042F60210ADF8500003AACDF800A0CDE9AE
:206620000121002340F2032214A800E01EE00A9903F0BCFF01004BD1DD484D4608385B461D
:206640000089ADF83D000FA8CDE90290CDF80490CDF810904FF007090022CDF80090BDF897
:2066600054104FF6FF7003F0E2FE10B1FFF753F8E3E69DF83C00000624D52946012060F3B1
:206680000F218DF852704FF424500395ADF8500062789DF80C00002362F300008DF80C00BB
:2066A0006278CDF800A0520862F341008DF80C0003AACDE9012540F2032214A803F076FF16
:2066C000010005D1606888B32069A8B905A900E084E006A8FFF7F0F86078800706D49DF8AA
:2066E000150020F038008DF8150005E09DF8140040F040008DF814008DF8527042F601107C
:20670000ADF85000208940F20121B0FBF1F201FB1202606809ABCDF80080CDE9010300234B
:2067200014A8059903F042FF010057D12078C00728D00395A06950B90BA906A8FFF7BCF895
:206740009DF82D0020F00700401C8DF82D009DF82C008DF8527040F040008DF82C0042F6F1
:206760000310ADF8500007A903AACDF800A0CDE90121002340F2032214A80B9903F016FF95
:2067800001002BD1E06868B32946012060F30F218DF8527042F60410ADF85000E068002393
:2067A00002788DF8582040788DF85900E06816AA4088ADF85A00E06800798DF85C00E06813
:2067C000C088ADF85D00CDF80090CDE901254FF4027214A803F0EAFE010003D00C9800F088
:2067E000CFFF2AE6724803210838017156B100893080BDF824007080BDF82000B080BDF868
:206800001C00F080002018E670B501258AB016460B46012802D0022816D104E08DF80E50C9
:206820004FF4205003E08DF80E5042F60100ADF80C005BB10024601C60F30F2404AA08A964
:20684000184608F0ECF918B107204AE5102048E504A99DF820205648CDE90021801E02905A
:206860000023214603A802F2012203F09FFE10B1FEF751FF35E54E4808380EB1C18831808D
:20688000057100202DE5F0B593B0074601268DF83E6041F60100ADF83C0012AA0FA93046CE
:2068A000FFF7B2FF002849D1414C0025083CEFB31C22002102A811F0A1FF9DF808008DF88B
:2068C0003E6040F020008DF8080042F60520ADF83C000E959DF83A00119520F00600801C35
:2068E0008DF83A009DF838006A4620F0FF008DF838009DF8390009A920F0FF008DF8390043
:206900000420ADF82C00ADF830000EA80A9011A80D900FA80990ADF82E5002A8FFF769FD8E
:2069200000280BD1BDF80000608100E008E0BDF80400A081401CE0812571002013B0F0BD38
:206940006581A581BDF84800F4E72DE9F74F1849A0B00024083917940A79A146012A04D0CD
:20696000022A02D0082023B02EE5CA88824201D00620F8E721988A46824201D10720F2E700
:206980000120214660F30F21ADF848004FF6FF780691ADF84A808DF86E0042F6020B8DF880
:2069A00072401CA9ADF86CB0ADF87040139101E060020020ADF8508012A803F007FF0025F6
:2069C0002E462F460DAB072212A9404603F001FF78B10A285DD195B38EB3ADF86450ADF8A9
:2069E00066609DF85E008DF8144019AC012864D06BE09DF83A001FB3012859D1BDF83810A7
:206A000059451FD118A809A901940294CDE9031007200090BDF8361010230022404603F002
:206A200066FFB0BBBDF86000042801D006284AD1BDF82410219881423AD10F2093E73AE0F8
:206A4000012835D1BDF83800B0F5205F03D042F6010188422CD1BAF80600BDF836108842A5
:206A600001D1012700E0002705B19EB1219881421ED118A809AA01940294CDE90320072007
:206A800000900D4610230022404603F030FF00B902E02DE04E460BE0BDF86000022801D0DF
:206AA000102810D1C0B217AA09A908F0B6F850B9BDF8369086E7052055E705A917A8221D34
:206AC00008F0ADF808B103204DE79DF814000023001DC2B28DF8142022980092CDE90140B0
:206AE0001BA8069903F062FD10B902228AF80420FEF711FE37E710B50B46401E88B084B24B
:206B000005AA00211846FEF7A6FE00200DF1080C06AA05A901908CE8070007200090012337
:206B2000002221464FF6FF7003F081FC0446BDF81800012800D0FFDF2046FEF7ECFD08B0BE
:206B400010BDF0B5F94F044687B038790E46032804D0042802D0082007B0F0BD04AA03A912
:206B60002046FEF751FE0500F6D160688078C0F3410002280AD19DF80D0010F0380F05D028
:206B80002069FAF79CFB08B11020E5E7208905AA21698DE807006389BDF8102020680399DC
:206BA00003F004FD10B1FEF7B6FDD5E716B1BDF814003080042038712846CDE7F8B50C00D4
:206BC00006460CD001464FF6FF7500236A46284603F013FF28B100BFFEF79DFDF8BD10203B
:206BE000F8BD69462046FEF7C7FD0028F8D1A078314600F001032846009A03F02DFFEBE7A5
:206C000030B587B0144600220DF1080C05AD01928CE82C00072200920A46014623884FF6A3
:206C2000FF7003F004FCBDF814102180FEF773FD07B030BD70B50D46042106F041FA04009D
:206C400000D1FFDF294604F11400BDE8704002F003BC70B50D46042106F032FA040000D173
:206C6000FFDF294604F11400BDE8704002F017BC70B50D46042106F023FA040000D1FFDF41
:206C8000294604F11400BDE8704002F02FBC70B50546042106F014FA040000D1FFDF214697
:206CA00028462368BDE870400122FEF704BF70B50646042106F004FA040000D1FFDF04F179
:206CC000140002F0B9FB401D20F0030511E0011D00880022431821463046FEF7ECFE00288D
:206CE0000DD0607CABB2684382B2A068011D06F0B9F8A068002802D041880029E7D170BDF9
:206D000070B50546042106F0DBF9040000D1FFDF214628466368BDE870400222FEF7CBBECA
:206D200070B50E46054601F013F9040000D1FFDF0120207266726580207820F00F00001D9B
:206D400020F0F00040302070BDE8704001F003B910B50446012900D0FFDF2046BDE81040EF
:206D60000121FEF791BA2DE9F04F97B04FF0000983460C46ADF81490C8460846FAF75BFAC7
:206D8000C8B9E06830B1A068A8B10188ADF81410A0F800905846FAF72DFC070043F2020A6E
:206DA0005FD03878222874D30421584606F088F9050005D103E0102017B0BDE8F08FFFDF72
:206DC00005F1140002F038FB401D20F00306A078012803D0022801D00720EDE7218807AAAA
